:020000040800F2
:10000000B8700020E50D00081B0300081D03000860
:100010002103000825030008290300080000000050
:100020000000000000000000000000002D03000898
:100030002F0300080000000031030008330300080C
:10004000FF0D0008FF0D0008FF0D0008FF0D000860
:10005000FF0D0008FF0D0008FF0D0008FF0D000850
:10006000FF0D0008FF0D0008FF0D0008FF0D000840
:10007000FF0D0008FF0D0008FF0D0008FF0D000830
:10008000FF0D0008FF0D0008FF0D0008EF600008DD
:1000900005610008FF0D0008FF0D0008FF0D0008B6
:1000A000FF0D0008FF0D0008FF0D0008FF0D000800
:1000B000FF0D0008FF0D0008FF0D0008FF0D0008F0
:1000C000FF0D0008FF0D0008FF0D0008FF0D0008E0
:1000D000FF0D000869670008FF0D0008096A0008A5
:1000E000FF0D0008FF0D0008FF0D0008FF0D0008C0
:1000F000FF0D0008FF0D0008FF0D0008FF0D0008B0
:10010000FF0D0008FF0D0008F75B0008FF0D000859
:10011000FF0D0008FF0D0008FF0D0008FF0D00088F
:10012000FF0D0008FF0D0008FF0D0008FF0D00087F
:10013000FF0D0008FF0D0008FF0D000845620008D4
:100140005B620008FF0D0008FF0D0008FF0D0008AE
:10015000FF0D0008FF0D0008FF0D0008FF0D00084F
:10016000FF0D0008FF0D0008FF0D0008FF0D00083F
:10017000FF0D0008FF0D0008FF0D0008FF0D00082F
:10018000FF0D0008FF0D000800F002F800F0B6F8BF
:100190000AA090E8000C82448344AAF10107DA45E2
:1001A00001D100F0ABF8AFF2090EBAE80F0013F07E
:1001B000010F18BFFB1A43F001031847D894000041
:1001C000F894000010F8013B0A4413F0030408BF40
:1001D00010F8014B1D1108BF10F8015B641E05D01B
:1001E00010F8016B641E01F8016BF9D1002D15D0D8
:1001F00010F8014B03F00C030C2BA1EB04040ABF15
:1002000010F8013BA4EB8314A4EB032405F10103D4
:1002100014F8016B5B1E01F8016BF9D5914238BFF0
:1002200010F8013BD1D3704700230024002500269D
:10023000103A28BF78C1FBD8520728BF30C148BF49
:100240000B6070476E2906F08D85702906F0CF8609
:10025000662908F05A86652908F05786672908F04C
:100260005486612908F0538603681B0A28BF41F0B1
:100270008001692906F03A85642906F037857529D9
:1002800006F034856F2906F05C86782906F09B8697
:10029000E92906F0F785E42906F0F485F52906F04A
:1002A000F185EF2906F05986F82906F09A86036849
:1002B000DB0928BF41F08001632907F0CD83732952
:1002C00007F0D283E32907F0DD83F32907F0E28307
:1002D000002070471FB508F00EFE07F02DFC04004B
:1002E0000020002108F020F9401C6060002000215F
:1002F00008F004F9E0601FBD10B510BD07F0EEFB7B
:100300001146FFF7E7FF00F0E1F807F0C7FC03B480
:10031000FFF7F2FF03BC07F00FFD704700BFFEE7D9
:1003200000BFFEE700BFFEE700BFFEE77047704773
:10033000704710B503F0A3FF03F0AAFF10BD000043
:1003400010B503F06FFF06F0F7F800231A464FF6DA
:10035000FF71022004F0AAFB04F08AF905F0EBF922
:1003600005F0C6FC06F038FA05F0E5F905F0FCFDED
:1003700005F03AFE05F0E2FE05F0DDF905F011FAB0
:1003800005F05AFD05F0B1FD05F0B5FD04F00FF8DC
:1003900043F24431182005F0C3FB10BD30B50346CD
:1003A00014460020002203E053F822502844521C37
:1003B0008A42F9DB90FBF1F030BD10B50346DFED6A
:1003C000FE0AB0EE600A002008E003EB8004D4EDE2
:1003D000000A70EE800AB0EE600A401C8842F4DB2E
:1003E00000EE901AF8EEE00A80EE201AB0EE410A14
:1003F00010BD30B592FBF1F501FB15252CB240F88C
:10040000243030BD30B592FBF1F501FB15252CB23F
:1004100000EE103AB8EEC00A00EB840585ED000A44
:1004200030BD0146002901DA484270470846FCE722
:10043000F0B50546059C2E68002E01DB374600E02E
:10044000774238460E68002E01DB374600E07742DF
:10045000874206DD0E68002E01DB374600E077425A
:1004600038461668002E01DB374600E077428742A7
:1004700006DD1668002E01DB374600E0774238467D
:100480001E68002E01DB374600E07742874206DD1A
:100490001E68002E01DB374600E077423846A04256
:1004A00013DD2E68664396FBF0F62E600E686643F9
:1004B00096FBF0F60E601668664396FBF0F6166043
:1004C0001E68664396FBF0F61E60F0BD2DED088BAE
:1004D00084B0FFF735FF00200EE0002108E0002384
:1004E000AF224243B54C04EB021242F82130491CC2
:1004F000B1F52F7FF3DB401C0428EEDB4FF47A7A52
:10050000D5E203F0D4FEAE4909688842F8D003F082
:10051000CEFEAB490860AB48C07A03287ED10846BE
:1005200000681421B0FBF1F201FB1200002876D123
:10053000A54890ED010AA54880ED000AA24890ED7B
:10054000000AA34880ED000AA04890ED000AA048E8
:10055000D0ED000A20EE200A9E4880ED000A90EDC2
:10056000000A9D48D0ED000A30EE600A10EE101A25
:10057000084608F04FFC41EC1B0B9FED980B53EC29
:10058000102B08F05FFA41EC190B9648006808F050
:1005900041FC41EC1A0B53EC192B08F051FB41ECD8
:1005A000180B07F0D7FF8F490860084690ED000A46
:1005B000B5EEC00AF1EE10FA04D89FED7F0A80ED87
:1005C000000A0DE0874890ED000ADFED870AB4EEDF
:1005D000E00AF1EE10FA03DD9FED830A80ED000AD8
:1005E000804890ED000ABDEEC00A804880ED000A08
:1005F0007F4800687F490968CDE900107E487B4A42
:100600007E4903687E4800F0B5FB7E4908600846D5
:100610000068C0F57A707C49086001E023E20EE0D2
:1006200008460068C82801DAC820086076480068D3
:10063000B0F57A7F03DD4FF47A70734908604FF4A8
:100640002579724800680390C8200290012006F0C6
:100650007EF800EB401000EB80015A48B0F904002E
:1006600000EB810B022006F072F800EB401000EB6B
:100670008000ABEB80010398414391FBF9F6082021
:1006800006F065F800EB401000EB80004D49B1F931
:10069000021001EB800B042006F059F800EB40102B
:1006A00000EB8000ABEB80010398414391FBF9F430
:1006B0004FF4806006F04BF800EB401000EB800137
:1006C0004048B0F9060000EB810B4FF4007006F0D3
:1006D0003EF800EB401000EB8000ABEB800102988D
:1006E00091FBF0F5012006F032F800EB401000EB32
:1006F00080013448B0F9040000EB810B022006F0C1
:1007000026F800EB401000EB8000ABEB800000907F
:10071000082006F01CF800EB401000EB800029498F
:10072000B1F9021001EB800B042006F010F800EB89
:10073000401000EB8000ABEB80000190002801DB53
:10074000019801E0019840420099002901DB0099DD
:1007500001E0009949420844C82808DD022D01DD66
:10076000022504E015F1020F01DA6FF00105012006
:1007700005F0EDFF00EB401000EB80011148B0F9EF
:10078000040000EB810B022005F0E1FF00EB4010BC
:1007900000EB8000ABEB80000090082005F0D7FF55
:1007A00000EB401000EB80000649B1F9021001EBAC
:1007B000800B04202CE00000000000006C310020C1
:1007C000001000206C690020B06900202C1000206F
:1007D00030100020381000203C1000207B14AE4761
:1007E000E17A943F40100020000070424410002045
:1007F0005810002054100020501000203410002009
:100800002C5D0020481000204C10002028100020F3
:1008100005F09DFF00EB401000EB8000ABEB80008B
:100820000190002801DB019801E001984042009905
:10083000002901DB009901E0009949420844B0F524
:10084000E17F08DD012D01DD012504E0B5F1FF3F69
:1008500001DA4FF0FF3596480068B0F5FA7F08DC02
:10086000022D01DD022504E015F1020F01DA6FF01F
:1008700001058F480068B0F5967F08DC012D01DD89
:10088000012504E0B5F1FF3F01DA4FF0FF3589485B
:1008900000682844874908608748016887480160E4
:1008A0008748006887490968CDE900108648834A6F
:1008B00080490368854800F03DFA8549086008468C
:1008C0000068B0F5FA6F03DD4FF4FA60086007E0E6
:1008D0007F48006810F5FA6F02DA7E487C490860AC
:1008E000311E01DB0A4600E04A42201E01DB0346BE
:1008F00000E04342D718301E01DB014600E04142D0
:100900008846201E01DB014600E04142414505DDED
:10091000201E01DB014600E041428846301900FB01
:1009200008F090FBF7F06C4908607042204400FB2F
:1009300008F090FBF7F048607042001B00FB08F0E5
:1009400090FBF7F08860301B00FB08F090FBF7F09D
:10095000C8604FF0000B28E05F4951F82B30AF2101
:100960000BFB01F15D4A02EB01105D490A684FF48F
:100970002F71FFF73EFDAF210BFB01F1574A02EB50
:10098000011057490A684FF42F71FFF707FD5249CC
:1009900041F82B00084650F82B004D4909680844DF
:1009A0004D4941F82B000BF1010BBBF1040FD3DBD8
:1009B00000200DE0484951F820104A4A126851437E
:1009C0004FF47A7291FBF2F1434A42F82010401C36
:1009D0000428EFDB364800683F4B0C331A1F111F09
:1009E0000090081FFFF724FD3F48406B3F49086017
:1009F0003F48406B48603F48406B88603E48406BD2
:100A0000C8604FF0000B1AE03C4800683C49096898
:100A1000364B03EB8B02304BCDE9001003EB8B011F
:100A20000BEB4B03DFF8DCC00CEB8300364B1B6891
:100A300000F080F9354941F82B000BF1010BBBF1B7
:100A4000040FE1DB3148808900B200902F48008913
:100A500003B22E48808802B22C48008801B22C488C
:100A600005F0F8FC09E02B48C07A022805D10023E4
:100A70001A465146264805F01BFD194800683221E8
:100A8000B0FBF1F201FB120088B904F051F95346B2
:100A900021A20221012004F0F6F9002000E0401C10
:100AA0000428FCDB04F075FA1D4803F0F5FD28E589
:100AB0002810002010100020E83000201410002022
:100AC00024100020201000201C1000206031002085
:100AD0001810002030F8FFFF303100206C3100206A
:100AE000001000204C100020AC6700204031002096
:100AF000EC6700202C6800206C6800200C1000209F
:100B00000810002000310020041000205031002087
:100B1000006800406C69002079493A202564000093
:100B2000AC8F00080CB5002001900090764800685A
:100B300040F480307449086000BF7348006800F4D6
:100B4000003000900198401C0190009818B901985D
:100B5000B0F5A04FF1D16C48006800F4003010B13E
:100B60000120009001E0002000900098012846D16B
:100B700065484030006840F080506349403108606B
:100B80006248006840F44040604908605E480830B0
:100B900000685D49083108600846006840F400407C
:100BA00008600846006840F4A05008605848091FD3
:100BB0000860081F006840F08070091F086000BFCF
:100BC0005148006800F000700028F9D040F205702C
:100BD000504908604C480830006820F003004A493A
:100BE000083108600846006840F00200086000BF55
:100BF00045480830006800F00C000828F8D10CBD0A
:100C000010B54548006840F47000434908603E480C
:100C1000006840F001003C49086000203A49083172
:100C20000860394800683D490840374908603C4839
:100C3000091D0860081F006820F48020091F086053
:100C4000002031490C310860FFF76CFF4FF0006065
:100C500031498039086010BD70B5002000220223A0
:100C600000240221284D08352D6805F00C0020B124
:100C7000042806D0082834D107E02A4D2A4E3560D2
:100C800033E02A4D284E35602FE01F4D2D1D2D6875
:100C9000C5F380541C4D2D1D2D6805F03F0154B146
:100CA000224DB5FBF1F5184E361D3668C6F3881691
:100CB00005FB06F209E01B4DB5FBF1F5124E361DA2
:100CC0003668C6F3881605FB06F20F4D2D1D2D68FC
:100CD000C5F301456D1C6B00B2FBF3F5124E356098
:100CE00003E0104D104E356000BF00BF064D0835C3
:100CF0002D68C5F303150E4E705D0B4D2D68C54074
:100D0000094E356070BD00000038024000700040A0
:100D100008544007003C024088ED00E0FFFFF6FE6B
:100D2000103000240024F4005C10002000127A002F
:100D3000601000202DE9F0410446DDE906566068A8
:100D4000A0600868D2F800C0A0EB0C006060D4E995
:100D5000000C6044206060685843D4F800C005FB74
:100D60000C00D4E901C8ACEB080C06FB0C0738B248
:100D7000BDE8F0812DE9F0472DED048B04460D46CA
:100D800016461F46DDE90C896068A0602868316856
:100D9000401A6060206807F03EFE41EC190B9FEDA1
:100DA0000F0B53EC102B07F04DFE41EC180B07F026
:100DB00003FE2060D4E900010844206060687843A5
:100DC000216808FB0100D4E90112891A09FB010A14
:100DD0000FFA8AF0BDEC048BBDE8F087CDCCCCCC0B
:100DE000CCCCEC3F0948804709480047FEE7FEE7C6
:100DF000FEE7FEE7FEE7FEE7FEE7FEE7FEE7FEE7CB
:100E000004480549054A064B70470000010C0008DC
:100E100089010008B86A0020B8700020B86C002072
:100E2000B86C002032490143324A1160704770B5F6
:100E3000002100230F22C4781CB32E4C246804F434
:100E4000E064C4F5E064C4F30721C1F10404E3B233
:100E50000A4144789C40E1B28478144021430C0755
:100E6000210E254C05786155047804F01F050124F6
:100E7000AC4005786D11AD0005F1E025C5F80041E5
:100E800009E0047804F01F050124AC401B4D0678EE
:100E9000761145F8264070BD194A0A400243154BA9
:100EA0001B1F1A60704739B1124A121D12680243A3
:100EB000104B1B1D1A6006E00E4A121D1268824379
:100EC0000C4B1B1D1A607047042808D14FF0E0211D
:100ED000096941F004014FF0E022116107E04FF091
:100EE000E021096921F004014FF0E022116170470F
:100EF0000000FA050CED00E000E400E080E100E015
:100F000080FFFF1F10B50121080202F088FF0021B9
:100F10004FF4807002F083FF10BD30B50246002010
:100F200000235068F84C20400D790C6844EA0524F1
:100F3000204350609068F54C2040D1E903542C4385
:100F40008D682C434D7944EA450420439060D06A73
:100F500020F470000C7D641EE4B2234340EA035089
:100F6000D06230BD00210160017141718160C160BA
:100F700001610121017570470021E54A1168E54AC8
:100F80001140D0E900231A4383681A43C3681A4307
:100F90001143E14AC2F80413704700210160416027
:100FA0008160C160704721B1826842F001028260B5
:100FB00003E0826822F00102826070470A46002145
:100FC0004168D64B194011434160704741628262CB
:100FD00070470A460021416821F01F01114341601A
:100FE000704738B1CA49096841F40001CA4AC2F8D9
:100FF000041306E0C649096821F40001C64AC2F894
:101000000413704738B1C249096841F48001C24AEB
:10101000C2F8041306E0BE49096821F48001BE4A03
:10102000C2F804137047F0B504460D4600200021B5
:10103000092D11DDE068A5F10A0606EB4607072633
:1010400006FA07F18843A5F10A0606EB460603FAFD
:1010500006F10843E0600CE0206905EB4507072630
:1010600006FA07F1884305EB450603FA06F1084343
:101070002061072A0FDA606B561E06EB86071F26D3
:1010800006FA07F18843561E06EB860605FA06F1B6
:101090000843606322E00D2A0FDA206BD61F06EBAF
:1010A00086071F2606FA07F18843D61F06EB860639
:1010B00005FA06F10843206310E0E06AA2F10D068C
:1010C00006EB86071F2606FA07F18843A2F10D06F4
:1010D00006EB860605FA06F10843E062F0BD81687A
:1010E00041F0804181607047014600208A6802F02B
:1010F00080420AB1012000E00020704721B18268DF
:1011000042F48062826003E0826822F4806282603E
:10111000704721B1826842F00202826003E0826877
:1011200022F002028260704710B50A4600210023B7
:10113000416821F46041531E41EA4331416010BDD2
:1011400021B1426842F40062426003E0426822F446
:101150000062426070470146C86C80B270476C48BC
:10116000001D0068704721B1826842F4807282607D
:1011700003E0826822F480728260704721B1826845
:1011800042F40072826003E0826822F4007282609E
:10119000704738B15E49096841F400515E4AC2F8AF
:1011A000041306E05A49096821F400515A4AC2F86A
:1011B00004137047F0B504461546002000220026AF
:1011C000092911DDE068A1F10A0707EB470C0727A1
:1011D00007FA0CF29043A1F10A0707EB470703FA5D
:1011E00007F21043E0600CE0206901EB410C072797
:1011F00007FA0CF2904301EB410703FA07F21043A0
:101200002061A06BC0F30156EF1C06F1010CA7EBA7
:101210000C0707EB870C1F2707FA0CF29043EF1C13
:1012200006F1010CA7EB0C0707EB870701FA07F2A1
:101230001043A063F0BD10B50A4600210023816B66
:1012400021F44011531E41EA0351816310BD08B5DA
:10125000002300930090009B0B440093009B1A60B6
:1012600008BD0A460021816821F470211143816084
:1012700070470A460021816821F4401111438160C2
:101280007047816841F48001816070470146002009
:101290008A6802F480020AB1012000E00020704751
:1012A00021B1426842F48062426003E0426822F465
:1012B00080624260704721B1426842F480524260CD
:1012C00003E0426822F480524260704708B502464B
:1012D00000200090009201F12800009B184400902B
:1012E0000098006880B208BD10B50B460021D9B245
:1012F000012404FA01F11AB144680C43446002E08D
:1013000044688C43446010BDFFFEFFFCFDF7FFC046
:1013100004230140E030FCFF00200140FFFD3FFFBF
:101320000246002013680B400BB1012000E00020B2
:101330007047CA430260704770B502460020002320
:1013400000240B12556801268E4005EA0604156834
:101350001D4015B10CB1012000E0002070BD00223D
:101360000A12D3430360704710B50446FE48844216
:1013700009D10121480602F041FD00214FF0007023
:1013800002F03CFD08E00121880602F037FD002153
:101390004FF0806002F032FD10BD30B502460020F3
:1013A0000023146824F002041460146844F001045B
:1013B000146000E05B1C546804F001041CB94FF693
:1013C000FF74A342F6D1546804F001040CB9002064
:1013D0006CE08C79012C04D1146844F08004146012
:1013E00003E0146824F080041460CC79012C04D14B
:1013F000146844F04004146003E0146824F04004CE
:1014000014600C7A012C04D1146844F02004146098
:1014100003E0146824F0200414604C7A012C04D1F9
:10142000146844F01004146003E0146824F01004FD
:1014300014608C7A012C04D1146844F00804146000
:1014400003E0146824F008041460CC7A012C04D161
:10145000146844F00404146003E0146824F00404E5
:1014600014608C78A407CD7844EA05640D7944EAC9
:1014700005444D7944EA05540D886D1E2C43D46112
:10148000146824F001041460002300E05B1C54681D
:1014900004F001041CB14FF6FF74A342F6D1546866
:1014A00004F001040CB1002000E0012030BD10B5B3
:1014B0000021837A012202FA03F1AC4A126842F059
:1014C0000102AA4B1A60A94A1C3212688A43A74B30
:1014D0001C331A60027BCAB9A44A0C3212688A43D0
:1014E000A24B0C331A604288C38842EA03439F4AE6
:1014F0004032847A42F834300288838842EA0343D7
:101500009A4A4032847A02EBC4025360027B012A79
:1015100019D1964A0C3212680A43944B0C331A6064
:101520004288038842EA0343904A4032847A42F870
:101530003430C288838842EA03438C4A4032847A3A
:1015400002EBC4025360C27A3AB9884A121D12688B
:101550008A43864B1B1D1A6006E0844A121D1268DE
:101560000A43824B1B1D1A60028932B97F4A14322A
:1015700012688A437D4B14331A600289012A06D10E
:101580007A4A143212680A43784B14331A60427B49
:10159000012A06D1754A1C3212680A43734B1C3368
:1015A0001A60724A126822F00102704B1A6010BD74
:1015B00000218171C171017241728172C1728170A9
:1015C000C170032101710221417101210180704725
:1015D0006649096841F00101644A116011460968D1
:1015E00043F60E729143614A11601146096841EA5F
:1015F000002111601146096821F001011160704756
:1016000021B1026842F48032026003E0026822F4F1
:10161000803202607047E1B1026842F080020260ED
:101620004FF4C272125842F480734FF4C2721350D6
:101630004FF4CA72125842F480734FF4CA721350B6
:101640004FF4D272125842F480734FF4D272135096
:101650001BE0026822F0800202604FF4C27212584E
:1016600022F480734FF4C27213504FF4CA721258AE
:1016700022F480734FF4CA7213504FF4D27212588E
:1016800022F480734FF4D2721350704710B50246A3
:101690000020936803F08063B3F1806F00D110E005
:1016A000936803F00063B3F1006F01D1012008E0FB
:1016B000936803F08053B3F1805F01D1022000E012
:1016C0000420042879D002F5C07303EB00131B68D3
:1016D00003F0010402F5C07303EB00131C600B7AE6
:1016E0007BB94B7A0C8843EA445302F5C07404EB8F
:1016F00000142468234302F5C07404EB0014236033
:1017000010E00B7A4C6843EAC4034C7A234302F599
:10171000C07404EB00142468234302F5C07404EB86
:10172000001423608B7A03F00F038B7202F5C073F1
:1017300003EB00135B6823F00F0402F5C07303EBA7
:1017400000135C6002F5C07303EB00135B688C7AD6
:10175000234302F5C07404EB001463608B7B1C060A
:101760004B7B44EA034403E0006400400066004011
:101770000B7B44EA0323CC7A234302F5C07404EBC9
:101780000014A3608B7C1C064B7C44EA03440B7C56
:1017900044EA0323CC7B234302F5C07404EB00141A
:1017A000E36002F5C07303EB00131B6843F0010410
:1017B00002F5C07303EB00131C6010BD10B50246A8
:1017C000002321B1012907D002290FD109E0906837
:1017D000F94C00EA04030BE09068F84C00EA0403BB
:1017E00006E09068F64C00EA040301E0002300BF25
:1017F00000BFF44C181BA34216D007DC83B16FF076
:101800008060184470B1022818D111E0B0F5007F53
:1018100010D0ED4C204448B1B0F5003F0ED10BE0A4
:1018200002230DE000230BE0002309E0002307E082
:10183000012305E0012303E0012301E0002300BFB1
:1018400000BFD8B210BD21B1012907D002290FD1A4
:1018500009E0826842F0800282600AE0826842F415
:101860000042826005E0826842F40002826000E08B
:1018700000BF00BF704710B500F5D87303EB01132C
:101880001B6803F004031372137A53B900F5D8737D
:1018900003EB01131B6840F2FF7404EA5353136017
:1018A00009E000F5D87303EB01131B686FF0604487
:1018B00004EAD303536000F5D87303EB01131B68EC
:1018C00003F00203537200F5D87303EB01135B6856
:1018D00003F00F03937200F5D87303EB01135B68F9
:1018E0001B0AD37400F5D87303EB01139B68D37202
:1018F00000F5D87303EB01139B681C0A147300F501
:10190000D87303EB01139B681C0C547300F5D87358
:1019100003EB01139B681B0E937300F5D87303EB65
:101920000113DB68D37300F5D87303EB0113DB6895
:101930001C0A147400F5D87303EB0113DB681C0C4C
:10194000547400F5D87303EB0113DB681B0E93741A
:1019500021B9C36843F02003C36003E0036943F087
:101960002003036110BD21B9C26842F02002C260A9
:1019700003E0026942F02002026170470246002043
:1019800019B9D36803F0030006E0012903D11369F4
:1019900003F0030000E00020704710B502460B463C
:1019A00000204FF6FF71BBB9146824F0020444F024
:1019B0000104146000E0491E546804F00304012C83
:1019C00001D00029F7D1546804F00304012C01D0A0
:1019D000002032E0012030E0012B13D1146824F004
:1019E0000304146000E0491E546804F003040CB1C1
:1019F0000029F8D1546804F003040CB100201CE065
:101A000001201AE0022B17D1146824F0010444F0DD
:101A10000204146000E0491E546804F00304022C20
:101A200001D00029F7D1546804F00304022C01D03E
:101A3000002002E0012000E0002010BD014600204F
:101A40000A6822F0010242F002020A604A6802F0CB
:101A50000302022A00D10120704701464FF6FF72AF
:101A600000200B6823F002030B6000E0521E4B685D
:101A700003F00203022B01D1002AF7D14B6803F0D7
:101A80000203022B00D001207047014600208A6922
:101A900002F070007047014600208A69100E7047FE
:101AA000014600208A69C2F3074070471AB14369B2
:101AB0000B43436102E043698B434361704710B5B8
:101AC0000246002001F4700343B19369C1F313048B
:101AD00023400BB101202DE000202BE001F08073AA
:101AE00043B15368C1F3130423400BB1012021E03B
:101AF00000201FE001F0006343B19368C1F31304B9
:101B000023400BB1012015E0002013E001F0007329
:101B100043B1D368C1F3130423400BB1012009E0A2
:101B2000002007E01369C1F3130423400BB1012027
:101B300000E0002010BD0022244B994202D1002376
:101B4000836111E0C1F3130201F000730BB1C260B5
:101B50000AE001F080630BB1026105E001F000636F
:101B60000BB1826000E0426070470246002002EA4A
:101B700001030BB1012000E00020704770B504465E
:101B80000D46002660692840002872D0B5F5807F98
:101B900069D01DDC082D42D006DC012D2DD0022D90
:101BA00031D0042D7FD134E0102D3ED0202D42D0F5
:101BB000402D78D145E00000030000040003000838
:101BC00000000310000100080001FFF77000F03072
:101BD000B5F5004F61D009DCB5F5007F4AD0B5F509
:101BE000806F4DD0B5F5006F5DD150E0B5F5803F09
:101BF0002DD0B5F5003F56D12FE0A0685549FFF72D
:101C0000B4FF064651E0E0680321FFF7AEFF064649
:101C10004BE0E0680821FFF7A8FF064645E0E068D2
:101C20001021FFF7A2FF06463FE020690321FFF7DE
:101C30009CFF064639E020690821FFF796FF06461B
:101C400033E020691021FFF790FF06462DE0606821
:101C50000821FFF78AFF064627E060681021FFF79A
:101C600084FF064621E0A0690121FFF77EFF0646BA
:101C70001BE01BE0A0690221FFF777FF064614E096
:101C8000A0690421FFF771FF06460EE00BE0A06992
:101C90007021FFF76AFF064607E060680421FFF73E
:101CA00064FF064601E0002600BF00E00026304643
:101CB00070BDB1F5007F3AD00FDC202928D006DCBA
:101CC00001291CD004291DD0082940D11DE040293C
:101CD00021D0B1F5807F3AD126E0B1F5004F31D067
:101CE00006DCB1F5806F25D0B1F5006F2FD124E06F
:101CF000B1F5803F12D0B1F5003F28D111E0154A6F
:101D0000826025E00822C26022E01022C2601FE04B
:101D1000082202611CE01022026119E008224260E0
:101D200016E01022426013E00422426010E0042218
:101D300042600DE0042242600AE000228261042237
:101D4000426005E0002282610422426000E000BFA0
:101D500000BF704701010100016821F0010101602D
:101D60000021016041608160C16001612121416108
:101D7000DB49884204D13D21D94A103A91608CE078
:101D8000D7491831884205D14FF47461D44A103ACA
:101D9000916082E0D2493031884205D14FF474110C
:101DA000CF4A103A916078E0CD494831884205D158
:101DB0004FF07461CA4A103A91606EE0C8496031D0
:101DC000884204D1C749C64A103AD16065E0C44987
:101DD0007831884204D1C449C14A103AD1605CE0EC
:101DE000BF499031884204D1C049BD4A103AD16000
:101DF00053E0BB49A831884205D14FF03D51B84A64
:101E0000103AD16049E0BA49884204D13D21B84A2C
:101E1000083A116041E0B6491831884205D14FF4C3
:101E20007461B34A083A116037E0B14930318842F1
:101E300005D14FF47411AE4A083A11602DE0AC4957
:101E40004831884205D14FF07461A94A083A1160BF
:101E500023E0A7496031884204D1A249A44A121F55
:101E600011601AE0A2497831884204D19E49A04A03
:101E7000121F116011E09E499031884204D19B49A4
:101E80009B4A121F116008E09949A831884204D189
:101E90004FF03D51964A121F1160704710B5002255
:101EA0000268944B1A40CC680B6823434C69234367
:101EB0008C692343CC6923430C6A23434C6A234334
:101EC0008C6A23434C6B23438C6B23431A4302607D
:101ED000426922F00702D1E90B3423431A434261DD
:101EE0000B6943604B6883608B68C36010BD002141
:101EF000016041608160C160016141618161C161D6
:101F0000016241628162C162016341638163704722
:101F100021B1026842F00102026003E0026822F08F
:101F200001020260704721B1026842F4004202607F
:101F300003E0026822F400420260704721B10268A7
:101F400042F02002026003E0026822F020020260F8
:101F50007047416070470146486880B2704722B1BF
:101F6000036843F40023036003E0036823F40023C1
:101F700003600161704721B1026842F4802202606F
:101F800003E0026822F48022026070470AB1016116
:101F900000E0C1607047014600200A6802F4002298
:101FA0000AB1012000E000207047014600200A68C5
:101FB00002F001020AB1012000E000207047014652
:101FC00000204A6902F03800704730B503460A46DF
:101FD00000200024464DAB4202D24149103901E0B5
:101FE0004349103902F000550DB14C6800E00C680F
:101FF000414D2C4004EA02050DB1012000E0002013
:1020000030BD02463A4B9A4202D23548103801E0C0
:102010003748103801F000531BB1374B0B40C360F9
:1020200002E0354B0B408360704710B501F0800330
:102030004BB122B1436943F08003436103E043693C
:1020400023F08003436180290BD02AB1036801F09B
:102050001E042343036004E0036801F01E04A3434D
:10206000036010BD70B50246002000240025204EFC
:10207000B24202D21A4B103B01E01D4B103B1F4EE7
:102080000E4036B11E2606EAD124166806EA04057B
:1020900002E0566906F0800501F000560EB15C685A
:1020A00000E01C68144E344004EA010616B10DB17C
:1020B000012000E0002070BD02460D4B9A4202D282
:1020C0000748103801E00A48103801F000531BB1EE
:1020D000094B0B40C36002E0074B0B408360704725
:1020E000106002403D000020400F002000003D2015
:1020F000106402403F801CF07D0F7D0F3C0F3C0FB1
:1021000010B504469848844208D10121084601F0E0
:1021100042FE0021012001F03EFE76E09348844219
:1021200008D10121022001F036FE0021022001F039
:1021300032FE6AE08E48844208D10121042001F079
:102140002AFE0021042001F026FE5EE08948844238
:1021500008D10121082001F01EFE0021082001F015
:102160001AFE52E08448844208D10121102001F077
:1021700012FE0021102001F00EFE46E07F4884424E
:1021800008D10121202001F006FE0021202001F0CD
:1021900002FE3AE07A48844208D10121402001F051
:1021A000FAFD0021402001F0F6FD2EE07548844242
:1021B00008D10121802001F0EEFD0021802001F0F6
:1021C000EAFD22E07048844208D10121801501F027
:1021D000E2FD0021A01501F0DEFD16E06B4884420F
:1021E00008D10121401501F0D6FD0021601501F054
:1021F000D2FD0AE06648844207D10121001501F0B2
:10220000CAFD0021201501F0C6FD10BDF0B50A463B
:1022100000210023002400BF3DE0012505FA01F361
:10222000156805EA03049C4234D105684F00032673
:10223000BE40B543056015794E00B540066835438C
:1022400005601579012D02D01579022D16D185680A
:102250004F000326BE40B543856055794E00B5401A
:10226000866835438560456801268E40B5434560E4
:10227000456896798E40B6B235434560C5684F00D3
:102280000326BE40B543C560D5794E00B540C6684B
:102290003543C560491C1029BFD3F0BD4FF6FF710F
:1022A00001600021017141718171C171704708B5F0
:1022B0004FF480320092009A0A430092009AC26161
:1022C000C161009AC261C2690092C269009208BDF0
:1022D0000246002013690B400BB1012000E00020F2
:1022E00070470146086980B2704702460020536972
:1022F0000B400BB1012000E0002070470146486907
:1023000080B2704701837047418370470AB10183EF
:1023100000E0418370474161704742694A40426131
:102320007047F0B5002300244D07ED0E02FA05F3C7
:10233000CE1000F1200555F826504E07F70E0F2657
:10234000BE40B543CF1000F1200646F82750CE100E
:1023500000F1200555F8265045EA0304CE1000F19F
:10236000200545F82640F0BD000002400004024070
:1023700000080240000C024000100240001402401D
:1023800000180240001C02400020024000240240CD
:102390000028024010B50446FB48844208D10121C0
:1023A000801401F03CFD0021A01401F038FD3CE058
:1023B000F648844208D10121001401F01FFD0021DC
:1023C000201401F01BFD30E0F148844208D10121C6
:1023D000C01301F013FD0021E01301F00FFD24E014
:1023E000EC48844208D10121401401F018FD00217D
:1023F000601401F014FD18E0E748844209D101217E
:10240000080501F00CFD00214FF4801001F007FDDC
:102410000BE0E248844208D10121480501F0FFFCAD
:1024200000214FF4001001F0FAFC10BD10B500229D
:10243000028802F441520B884C8823438C88234342
:10244000CC8823430C8923434C8923438C89234321
:10245000CC8923431A430280838B4FF2FF742340BD
:1024600083830B8A038210BD2DE9F04F00250223E0
:1024700000244FF0010900220026002794469046D0
:10248000B0F81CA04FF2400B0AEA0B0AA0F81CA0FF
:102490004FF0020AA0F820A0858BD1F808A0BAF16D
:1024A000020F01D100BF82E0B1F804A0BAF1000F21
:1024B00002D14FF0010901E04FF00209DFF8E0A27C
:1024C000DAF800A00AF4000ABAF1000F09D0DFF828
:1024D000D0A2DAF800A02AF4000ADFF8C4B2CBF8E0
:1024E00000A0DFF8BCA20AF17C0ADAF800A0CAF367
:1024F000881CDFF8ACA20AF17C0ADAF800A0CAF363
:102500000278DFF89CA2AAF1040ADAF800A00AF027
:102510003F07DFF88CA2AAF1040ADAF800A00AF457
:10252000800ABAF5800F08D1DFF878A2BAFBF7FA73
:102530000AFB0CFABAFBF8F607E0DFF86CA2BAFB6C
:10254000F7FA0AFB0CFABAFBF8F6B1F806A0BAF5EE
:10255000007F0ED14FEA162A0AEB8A0A4FEA4A0A8E
:10256000D1F808B0BAFBFBFA0AF1050A1FFA8AF2A1
:102570000FE04FEA491AB6FBFAFA0AEB8A0A4FEA69
:102580004A0AD1F808B0BAFBFBFA0AF1050A1FFAA9
:102590008AF24FF00A0AB2FBFAF202F00104A2EB4F
:1025A000040ACAF34F034FF6FF7A0AEA0424022B07
:1025B00001DBFF2B01DD02230024B1F806A04AEA6B
:1025C000040A4AEA030AA0F820A0B1F804A0B1F86E
:1025D0000CB04AEA0B0AB1F802B04AEA0B0AB1F8A9
:1025E00000B04AEA0B0A4AF4006A4AEA0505858304
:1025F000BDE8F08F0021018041808180C180018190
:1026000041818181C18107210182704700210180C0
:1026100041808180C18002218160002181817047D9
:1026200021B1028842F04002028004E002884FF6A5
:10263000BF731A400280704721B1828B42F48062DE
:10264000828304E0828B4FF6FF331A408283704707
:1026500002884FF2FF731A40028002880A43028008
:102660007047B1F5804F04D1028842F48042028065
:1026700004E002884BF6FF731A40028070474FF661
:10268000FF62914204D0028842F48072028004E02A
:1026900002884FF6FF631A400280704721B182889A
:1026A00042F00402828004E082884FF6FB731A40F5
:1026B0008280704721B1828842F01002828004E05B
:1026C00082884FF6EF731A408280704730B500223F
:1026D0000023848B4FF240052C4084830224048421
:1026E000828B0C88B4F5007F01D00C8814B94FF4AC
:1026F000807308E00C88B4F5407F03D00C88B4F5F3
:10270000807F00D100238C888D892C434D882C43F9
:102710001C4344F400642243828330BD014688890F
:1027200070478181704721B1028842F400520280D3
:1027300004E002884DF6FF731A400280704701885A
:1027400041F480510180704702460020012901D0E8
:10275000108B00E0908A70470146088A70471AB1D2
:1027600083880B43838002E083888B438380704798
:1027700030B5002400230C110125A540ABB2AAB14D
:1027800085881D43858014E00030014000380040FA
:10279000003C004000340140005001400054014022
:1027A0000838024000127A000024F40085889D4316
:1027B000858030BD0246002013890B400BB10120FB
:1027C00000E000207047CA4302817047F0B502461E
:1027D000002000240023002501F00F070126BE4041
:1027E000B4B20B1101269E40B3B2968806EA0305E7
:1027F0001689264016B10DB1012000E00020F0BD81
:1028000010B5002201F00F040123A3409AB2D34374
:10281000038110BD10B50446FE48844208D1012151
:10282000084601F0FCFA0021012001F0F8FA9DE0D1
:10283000B4F1804F08D10121084601F0DFFA0021F0
:10284000012001F0DBFA91E0F348844208D1012134
:10285000022001F0D3FA0021022001F0CFFA85E036
:10286000EE48844208D10121042001F0C7FA00217A
:10287000042001F0C3FA79E0E948844208D101213B
:10288000082001F0BBFA0021082001F0B7FA6DE042
:10289000E448844208D10121102001F0AFFA002160
:1028A000102001F0ABFA61E0DF48844208D1012139
:1028B000202001F0A3FA0021202001F09FFA55E02A
:1028C000DA48844208D10121022001F0A8FA00214F
:1028D000022001F0A4FA49E0D548844209D101213F
:1028E000080401F09CFA00214FF4803001F097FABF
:1028F0003CE0D048844209D10121480401F08FFA1C
:1029000000214FF4003001F08AFA2FE0CA488442D7
:1029100009D10121880401F082FA00214FF48020BE
:1029200001F07DFA22E0C548844208D1012140200F
:1029300001F064FA0021402001F060FA16E0C0487E
:10294000844208D10121802001F058FA0021802022
:1029500001F054FA0AE0BB48844207D101218015F6
:1029600001F04CFA0021A01501F048FA10BD002238
:102970000288A84B98420ED0AC4B98420BD0B0F1D5
:10298000804F08D0A44B984205D0A44B984202D067
:10299000A34B984204D14FF68F731A404B881A43C9
:1029A000A04B984207D0A04B984204D04FF6FF436B
:1029B0001A400B891A4302804B68C3620B88038557
:1029C000944B984202D0994B984201D18B7A03865E
:1029D0000123838270474FF0FF3141600021018065
:1029E00001814180817270470185828270470A4669
:1029F000002101884FF68F73194011430180704701
:102A000041627047C16270470146486A704701469B
:102A1000088D704721B1028842F00202028004E072
:102A200002884FF6FD731A400280704721B1028878
:102A300042F00402028004E002884FF6FB731A4061
:102A40000280704721B1028842F08002028004E0D7
:102A500002884FF67F731A400280704702884FF653
:102A6000F7731A40028002880A4302807047028886
:102A70004FF6FF431A40028002880A4302807047E3
:102A800021B1028842F00102028004E002884FF680
:102A9000FE731A400280704770B5002400220023A4
:102AA000058C4FF6FE7635400584028C8388048BB6
:102AB0004FF68F752C40B51E2C400D882C43751E8B
:102AC0002A408D892A434D882A43524DA84202D07C
:102AD000564DA84213D14FF6F7752A40CD892A43A7
:102AE0004FF6FB752A408D882A434FF6FF652B4031
:102AF0004FF6FF552B400D8A2B434D8A2B43838085
:102B000004838D684563028470BD70B50024002283
:102B10000023058C4FF6EF7635400584028C8388C0
:102B2000048B48F6FF752C404FF6FF452C400D886E
:102B30004FF6FF7606EA05252C434FF6DF752A404F
:102B40008D8906EA05152A434D8806EA05152A43AC
:102B5000304DA84202D0354DA8421DD14FF67F75A9
:102B60002A40CD894FF6FF7606EA05152A434FF62F
:102B7000BF752A408D8806EA05152A434FF6FF35B2
:102B80002B404FF2FF752B400D8A06EA85052B433B
:102B90004D8A06EA85052B43838004838D6885630F
:102BA000028470BD70B5002400220023058C4FF60E
:102BB000FF6635400584028C8388848B4FF68F75C1
:102BC0002C404FF6FC752C400D882C434FF6FF55DA
:102BD0002A408D894FF6FF7606EA05252A434D885F
:102BE00006EA05252A430B4DA84202D00F4DA84204
:102BF00038D14FF2FF752A40CD894FF6FF7606EAAD
:102C000005252A434FF6FF352A408D8806EA05251B
:102C10002A4319E000000140000400400008004081
:102C2000000C00400010004000140040000401406F
:102C300000400140004401400048014000180040AD
:102C4000001C0040002000404EF6FF752B404DF662
:102C5000FF752B400D8A06EA05152B434D8A06EABF
:102C600005152B43838084838D68C563028470BD02
:102C700070B5002200230024058C4EF6FF76354007
:102C80000584038C8488828B48F6FF752A404FF6B2
:102C9000FF452A400D884FF6FF7606EA05252A43B0
:102CA0004DF6FF752B408D8906EA05352B434D887F
:102CB00006EA05352B43FE4DA84202D0FD4DA84241
:102CC00008D14BF6FF752C400D8A4FF6FF7606EAC9
:102CD00085152C43848082838D680564038470BDD0
:102CE000002101804180818081608181C1810182D8
:102CF0004182704770B50346002000241846183002
:102D000001258D40ACB21D8CA5431D8409B1082955
:102D10000AD100EB610005684FF68F7635400560FB
:102D20000568154305600FE00D1FC5F34E052844E7
:102D3000056848F6FF763540056005684FF6FF7672
:102D400006EA02263543056070BD41637047816322
:102D50007047C1637047016470470A460021018BC8
:102D60004FF68F7319401143018370470A460021C3
:102D7000018B48F6FF7319404FF6FF7303EA0223F5
:102D80001943018370470A460021818B4FF68F73E8
:102D900019401143818370470A460021818B48F610
:102DA000FF7319404FF6FF7303EA0223194381832F
:102DB00070470A460021018B4FF6F7731940114303
:102DC000018370470A460021018B4FF2FF731940BF
:102DD0004FF6FF7303EA02231943018370470A4643
:102DE0000021818B4FF6F77319401143818370479F
:102DF0000A460021818B4FF2FF7319404FF6FF7393
:102E000003EA02231943818370470A460021018B9C
:102E10004FF6FB7319401143018370470A460021A6
:102E2000018B4FF6FF3319404FF6FF7303EA02237D
:102E30001943018370470A460021818B4FF6FB73CB
:102E400019401143818370470A460021818B4FF658
:102E5000FF3319404FF6FF7303EA022319438183BE
:102E600070470A460021018B4FF67F7319401143CA
:102E7000018370470A460021018BC1F30E014FF612
:102E8000FF7303EA02231943018370470A460021B6
:102E9000818B4FF67F7319401143818370470A4637
:102EA0000021818BC1F30E014FF6FF7303EA022369
:102EB0001943818370470A460021018C4FF6FD7348
:102EC00019401143018470470A460021018C4FF6D6
:102ED000F77319401143018470470A460021018CA1
:102EE0004FF6DF7319404FF6FF7303EA02131943DD
:102EF000018470470A460021018C4FF67F73194008
:102F00004FF6FF7303EA02131943018470470A4620
:102F10000021018C4FF6FF5319404FF6FF7303EA6F
:102F200002231943018470470A460021018C4FF2A5
:102F3000FF7319404FF6FF7303EA0223194301841C
:102F400070470A460021018C4DF6FF7319404FF679
:102F5000FF7303EA023319430184704730B500233D
:102F600001248C40A3B2048C9C430484048C02FA98
:102F700001F5ADB22C43048430BD30B500230424E8
:102F80008C40A3B2048C9C430484048C02FA01F5A7
:102F9000ADB22C43048430BD828B4FF2FF331A4014
:102FA0008283828B4FF6FF7303EA01231A438283E5
:102FB0007047F0B50C461546002100220026078C0C
:102FC0004EF6FF7C07EA0C070784818B028C4FF6D4
:102FD000FF7707EA043640F6FF4739404FF6FF77A0
:102FE00007EA052739434FF6FF7707EA03373943E6
:102FF00045F6FF773A4046F480573A43818302848E
:10300000F0BD828B4FF6F3731A408283828B0A43A2
:1030100082837047F0B50C46154600210022002639
:10302000078C4FF6FF6C07EA0C070784818B028C34
:103030004FF6FF7707EA04264FF60C7739404FF634
:10304000FF7707EA03172F4339434FF2FF573A4000
:1030500046F480773A4381830284F0BD028B4FF2BD
:10306000FF331A400283028B4FF6FF7303EA0123FA
:103070001A4302837047F0B50C4615460021002222
:103080000026078C4FF6EF7C07EA0C070784018BBC
:10309000028C4FF6FF7707EA041640F6FF473940E7
:1030A0004FF6FF7707EA033739434FF6FF7703E020
:1030B000000001400004014007EA052739434FF6AC
:1030C0005F773A4046F010073A4301830284F0BD2F
:1030D000028B4FF6F3731A400283028B0A4302837A
:1030E0007047F0B50C46154600210022068C4FF6BD
:1030F000FE773E400684018B028C4FF60C76314001
:103100007E1C06EA03162E4331434FF6F576324015
:1031100044F00106324301830284F0BD70B50546D8
:103120000C46208850B92389A28861882846FFF779
:10313000D8FFE1882846FFF7CBFF25E02088042848
:103140000AD12389A28861882846FFF794FFE18885
:103150002846FFF783FF17E0208808280AD1238933
:10316000A28861882846FFF755FFE1882846FFF7C7
:1031700048FF09E02389A28861882846FFF719FFE4
:10318000E1882846FFF708FF70BD002101804180DB
:10319000012181800021C180018170472DE9F0412A
:1031A00005460C4600260127608808B9022600E083
:1031B0000026A088012801D1022700E001272088ED
:1031C000A0B92389A28861882846FFF78AFFE18891
:1031D0002846FFF77DFF23893A4631462846FFF708
:1031E0004AFFE1882846FFF739FF13E02389A288C8
:1031F00061882846FFF73FFFE1882846FFF72EFF4A
:1032000023893A4631462846FFF76BFFE188284676
:10321000FFF75EFFBDE8F0810146486B704701464D
:10322000886B70470146C86B70470146086C704751
:103230000A884B881A438B881A43CB881A430B8918
:103240001A434B891A438B891A43A0F844207047CC
:103250000021018041808180C18001814181818183
:10326000704731B1B0F8442042F40042A0F8442045
:1032700005E0B0F84420C2F30E02A0F844207047E5
:1032800021B1828842F00402828004E082884FF6F5
:10329000FB731A408280704721B1828842F001029C
:1032A000828004E082884FF6FE731A408280704765
:1032B0001AB183890B43838102E083898B43838125
:1032C00070478182704702460020138A0B400BB181
:1032D000012000E000207047CA430282704730B5E9
:1032E0000246002000230024158A05EA010395897F
:1032F00005EA010413B10CB1012000E0002030BD4B
:10330000CA430282704741EA0203A0F8483070477E
:103310001AB183890B43838102E083898B438381C4
:10332000704721B1828842F00802828004E08288DE
:103330004FF6F7731A408280704701894FF6F87292
:103340001140018170470A46002101894FF68F73B1
:10335000194011430181704730B504460D46294696
:103360002046FFF7F0FF208940F00700208130BDA4
:103370002DE9F04104460D4616461F46602D06D144
:103380003B46012231462046FFF775FE05E03B46ED
:10339000012231462046FFF7A4FE29462046FFF7CA
:1033A000D2FF208940F007002081BDE8F08130B5D0
:1033B0000C4600210189C9B24FF6FF7505EA0325C5
:1033C000154325432943018130BD2DE9F0410546D0
:1033D0000E4617469846002443463A46314628464C
:1033E000FFF7E5FF2C894FF6F870044044F007041E
:1033F0004FF68F70044044F070042C81BDE8F081DA
:10340000F0B504460D4616461F463B463246294651
:103410002046FFF7CCFF208940F480402081F0BD9A
:1034200082884FF68F731A40828082880A43828096
:10343000704702894FF6F8731A40028102890A43E5
:103440000281704702894FF67F731A400281028918
:103450000A4302817047F0B50C4615461E4600210E
:10346000002200230189028B038C4FF6F877394044
:1034700021434FF6FC473A4040F201173A434FF6DA
:10348000DD773B404FF6FF7707EA06172F433B43B4
:10349000018102830384F0BD21B1828842F0800261
:1034A000828004E082884FF67F731A4082807047E2
:1034B000A0F850107047000010B50446FA48844246
:1034C00008D10121102000F0AAFC0021102000F0FA
:1034D000A6FC57E0F548844209D10121480400F0D8
:1034E0008DFC00214FF4003000F088FC4AE0F048E9
:1034F000844209D10121880400F080FC00214FF4AE
:10350000802000F07BFC3DE0EA48844209D10121A3
:10351000C80400F073FC00214FF4002000F06EFCA2
:1035200030E0E548844209D10121080500F066FC3D
:1035300000214FF4801000F061FC23E0DF4884425A
:1035400008D10121202000F06AFC0021202000F099
:1035500066FC17E0DA48844209D10121880700F0AF
:103560004DFC00214FF0804000F048FC0AE0D548B7
:10357000844207D10121400500F040FC0021600594
:1035800000F03CFC10BD2DE9FF4705460E46002427
:10359000A14600BFA046B08900B100BF2C8A24F428
:1035A0004054F08804432C82AC8941F20C6084437F
:1035B000B08831890843718908430443AC81AC8ADF
:1035C00024F44074B0890443AC82684600F0A7FA42
:1035D000B548854202D0B948854202D1DDF80C9049
:1035E00001E0DDF80890A88900F4004040B109EB43
:1035F000C90000EB091031684900B0FBF1F707E0A2
:1036000009EBC90000EB091031688900B0FBF1F744
:103610006420B7FBF0F004012009642101FB10785D
:10362000A88900F4004040B1322000EBC800B0FB94
:10363000F1F000F00700044308E0322000EB08102E
:103640006421B0FBF1F000F00F0004432C81BDE8D1
:10365000FF874FF41651016000218180C1800181F4
:103660000C21418100218181704710B50246002064
:10367000108A20F470600B884C8823438C88234385
:10368000CC8823431843108210BD00210180418063
:103690008180C180704721B1828942F400528281C9
:1036A00004E082894DF6FF731A4082817047028BD5
:1036B00002F47F420283028B0A430283704721B1E6
:1036C000828942F40042828103E08289C2F30E02C1
:1036D0008281704721B1828A42F40062828204E0D2
:1036E000828A4FF2FF731A4082827047C1F3080248
:1036F0008280704701468888C0F308007047028ABC
:103700004FF6F0731A400282028A0A43028270471F
:1037100021B1828942F00202828104E082894FF65F
:10372000FD731A408281704782894FF2FF731A40FD
:10373000828182890A4382817047028A4FF6DF7351
:103740001A400282028A0A430282704721B1028A29
:1037500042F48042028204E0028A4BF6FF731A4070
:1037600002827047818941F001018181704721B156
:10377000828A42F00802828204E0828A4FF6F7735E
:103780001A4082827047028BD2B20283028B42EAD5
:1037900001220283704721B1828A42F02002828294
:1037A00004E0828A4FF6DF731A408282704721B1AB
:1037B000828A42F01002828204E0828A4FF6EF731E
:1037C0001A4082827047828A4FF6FB731A408282C7
:1037D000828A0A438282704721B1828A42F00202C1
:1037E000828204E0828A4FF6FD731A40828270471B
:1037F0001AB1838A0B43838202E0838A8B438382DC
:103800007047F0B50346002400260025002040F64E
:103810006A17B94200D100BF1846C1F3421401F043
:103820001F06012707FA06F5012C01D10C3004E030
:10383000022C01D1103000E014301AB107682F4378
:10384000076002E00768AF430760F0BD0246002052
:10385000B1F5007F00D100BF13880B400BB10120F0
:1038600000E00020704701F40072B2F5007F00D143
:1038700000BFCA430280704770B50246002400238F
:103880000025002040F66A16B14200D100BFC1F306
:10389000421501F01F03012606FA03F3012D13D18F
:1038A0009689334017E000000010014000440040BA
:1038B00000480040004C004000500040001401400F
:1038C00000780040007C0040022D02D1168A33406F
:1038D00001E0968A33400C12012606FA04F4168899
:1038E000344013B10CB1012000E0002070BD10B5D0
:1038F0000022002340F66A14A14200D100BF0A1240
:1039000001249440A3B2DC43048010BDF948006850
:1039100040F00100F74908600020F64908310860CE
:10392000F4480068F4490840F2490860F348091D6A
:103930000860F348EF4984310860F0481038091DE9
:103940000860EC48006820F48020EA490860002004
:10395000E8490C310860E7498C3108607047002164
:10396000E44A921C117011460870704710B5014668
:103970000022002300204A11012A02D1DD4C2368D5
:1039800008E0022A03D1DB4C7034236802E0D94CF2
:103990007434236801F01F02012494401C400CB1D0
:1039A000012000E0002010BD38B500200090002468
:1039B000002500BF3120FFF7D9FF05460098401CC5
:1039C00000900098B0F5A04F01D0002DF2D031202A
:1039D000FFF7CCFF08B1012400E00024204638BDE9
:1039E00001460020C34A106820F0F80040EAC100F8
:1039F00010607047C349086070470021BD4A7032AB
:103A000011701170012802D004280AD104E00121AC
:103A1000B84A7032117005E00521B64A7032117053
:103A200000E000BF00BF7047B7490860704770B53D
:103A3000049C41EA82150126C6EB530645EA064579
:103A4000054345EA0465AB4E361D356070BDAD4992
:103A500008667047820142EA0172A64B84331A60FD
:103A60007047A8498866704710B5830143EA01632F
:103A700043EA02739F4C8834236010BDA149086754
:103A80007047A049C864704702460020994B08332C
:103A9000186820F0EC6042EA01031843954B0833A4
:103AA0001860704702460020924B0833186820F0D7
:103AB000784042EA010318438E4B08331860704780
:103AC000014600208B4A0832106820F003000843AA
:103AD0001060704787480830006800F00C0070479D
:103AE00001460020834A0832106820F0F0000843A5
:103AF00010607047014600207E4A0832106820F4AA
:103B0000E05008431060704701460020794A0832AF
:103B1000106820F4604040EAC10010607047F0B5C2
:103B2000002100220024022500260223714F0837BD
:103B30003F6807F00C0121B1042905D0082937D1CD
:103B400005E0724F076036E0714F076033E0694F60
:103B50003F1D3F68C7F38056664F3F1D3F6807F023
:103B60003F036EB16A4FB7FBF3F7DFF888C10CF182
:103B7000040CDCF800C0CCF3881C07FB0CF40CE050
:103B8000624FB7FBF3F7DFF86CC10CF1040CDCF803
:103B900000C0CCF3881C07FB0CF4564F3F1D3F6858
:103BA000C7F301477F1C7D00B4FBF5F7076002E017
:103BB000564F076000BF00BF4E4F08373F6807F001
:103BC000F0010909534F7A5C0768D7404760494FB5
:103BD00008373F6807F4E051890A4E4F7A5C47681E
:103BE000D7408760434F08373F6807F46041490B6F
:103BF000484F7A5C4768D740C760F0BD002100F4A9
:103C00004072B2F5407F0AD13A4A0832116821F475
:103C1000F811414A02401143364A08321160354AD0
:103C200070321268C0F30B031A43324B70331A60C0
:103C30007047354944390860704733494039086056
:103C4000704736490860704701460020294A8C3287
:103C5000106820F01F004A1E1043264A8C32106064
:103C6000704701460020234A8C32106820F4F85037
:103C70004A1E40EA02201F4A8C32106070470146FB
:103C800000201C4A8C32106820F440100843106059
:103C9000704701460020174A8C32106820F440001B
:103CA00008431060704701460020124A8C321068A9
:103CB00020F440300843106070471949086070478D
:103CC00039B10C4A3032126802430A4B30331A6061
:103CD00006E0084A303212688243064B30331A60DD
:103CE0007047F9B1034A343212680243014B34334E
:103CF0001A601CE000380240FFFFF6EA1030002492
:103D00000030002000004742800E47420024F400AB
:103D100000127A0070100020FFFCFF0F5C01474288
:103D2000E01147428F4A126882438E4B1A607047F7
:103D300039B18C4A121D126802438A4B1B1D1A604E
:103D400006E0884A121D12688243864B1B1D1A60CA
:103D5000704739B1834A0C3212680243814B0C33ED
:103D60001A6006E07F4A0C32126882437D4B0C33A6
:103D70001A60704739B17B4A103212680243794B9E
:103D800010331A6006E0774A103212688243754B8E
:103D900010331A60704739B1724A243A12680243EC
:103DA000704B243B1A6006E06E4A243A1268824344
:103DB0006C4B243B1A60704739B16A4A203A12684A
:103DC0000243684B203B1A6006E0664A203A1268BC
:103DD0008243644B203B1A60704739B1614A1C3AF8
:103DE000126802435F4B1C3B1A6006E05D4A1C3AB6
:103DF000126882435B4B1C3B1A60704739B1594AC9
:103E0000143A12680243574B143B1A6006E0554AB5
:103E1000143A12688243534B143B1A60704739B10D
:103E2000504A103A126802434E4B103B1A6006E0AB
:103E30004C4A103A126882434A4B103B1A60704752
:103E400039B1484A1C3212680243464B1C331A608F
:103E500006E0444A1C3212688243424B1C331A600B
:103E6000704739B13F4A2032126802433D4B20333C
:103E70001A6006E03B4A203212688243394B2033F5
:103E80001A60704739B1374A243212680243354B01
:103E900024331A6006E0334A243212688243314BDD
:103EA00024331A60704739B12E4A2C32126802430B
:103EB0002C4B2C331A6006E02A4A2C3212688243BB
:103EC000284B2C331A60704739B1264A30321268B9
:103ED0000243244B30331A6006E0224A3032126823
:103EE0008243204B30331A607047012808D11D49A6
:103EF0003C31096841F008011A4A3C32116007E080
:103F000018493C31096821F00801164A3C32116019
:103F1000704739B1134A273A12780243114B273BB5
:103F20001A7006E00F4A273A127882430D4B273B5E
:103F30001A7070470B484030006840F080700949A3
:103F400040310860704701460020064A283A12684E
:103F50000A400AB1012000E00020704701492639DB
:103F6000087070473438024070B504460D46A0888A
:103F7000012804D1EAB200212068FEF7D2F9A08816
:103F8000022804D1EAB201212068FEF7CAF9A0880C
:103F9000042804D1EAB202212068FEF7C2F9A08801
:103FA000082804D1EAB203212068FEF7BAF9A088F4
:103FB000102804D1EAB204212068FEF7B2F9A088E3
:103FC000202804D1EAB205212068FEF7AAF9A088CA
:103FD000402804D1EAB206212068FEF7A2F9A088A1
:103FE000802804D1EAB207212068FEF79AF9A08858
:103FF000B0F5807F04D1EAB208212068FEF791F97C
:10400000A088B0F5007F04D1EAB209212068FEF74C
:1040100088F9A088B0F5806F04D1EAB20A2120683F
:10402000FEF77FF9A088B0F5006F04D1EAB20B214A
:104030002068FEF776F9A088B0F5805F04D1EAB277
:104040000C212068FEF76DF9A088B0F5005F04D15F
:10405000EAB20D212068FEF764F9A088B0F5804F20
:1040600004D1EAB20E212068FEF75BF9A088B0F512
:10407000004F04D1EAB20F212068FEF752F970BD5B
:1040800010B504462068C0F30901002944D180120C
:10409000A0F5801080380B283ED2DFE800F0060B38
:1040A00010151A1F24292E33380001210846FFF766
:1040B00007FE31E001210220FFF702FE2CE0012182
:1040C0000420FFF7FDFD27E001210820FFF7F8FDA0
:1040D00022E001211020FFF7F3FD1DE00121202047
:1040E000FFF7EEFD18E001214020FFF7E9FD13E0A6
:1040F00001218020FFF7E4FD0EE001210802FFF717
:10410000DFFD09E001214802FFF7DAFD04E00121AB
:104110008802FFF7D5FD00BF00BF10BD2DE9FC41AF
:1041200004460D4616461F46DDF820802046FFF760
:10413000A7FFA08800908DF804508DF806608DF8D8
:1041400005708DF8078069462068FEF75FF8BDE8C6
:10415000FC811CB504462046FFF792FFA088009022
:1041600002208DF8040000208DF8060003208DF851
:10417000050000208DF8070069462068FEF746F824
:104180001CBD1CB504462046FFF77AFFA0880090AE
:1041900000208DF804008DF8060001208DF8050040
:1041A0008DF8070069462068FEF730F81CBD1CB585
:1041B00004462046FFF764FFA088009001208DF898
:1041C000040000208DF806008DF805008DF807002A
:1041D00069462068FEF71AF81048844205D1A18884
:1041E00000222068FEF79DF807E00D48844204D1C4
:1041F000A18800222068FEF794F81CBD10B5044683
:10420000A1882068FEF764F810BD70B504460D461D
:10421000A1882A462068FEF779F870BD8C8F0008C7
:10422000AC8F000830B500BF2B4800684FF47A729D
:10423000B0FBF2F1481EB0F1807F01D301201BE0FA
:10424000481E4FF0E022506150170F22002807DA75
:1042500013071D0E214B00F00F04241F1D5503E012
:1042600013071C0E1E4B1C5400BF00204FF0E02211
:1042700090610720106100200028D5D130BD194879
:10428000006820B117480068401E16490860704752
:10429000154800681549884205D213480068401C3B
:1042A0001149086002E000200F49086070470E487D
:1042B0000068704701200B49086000BF094800688A
:1042C0000028FBD170470749086000BF054909680D
:1042D0000029FBD1704700005C10002018ED00E0C1
:1042E00000E400E0801000208410002080969800F8
:1042F0001CB55648FFF72DFF5548FFF72AFF01214F
:104300005248FFF731FE01215148FFF72DFE0020F2
:104310004FF6FF7302461B2100904FF0804000F0E3
:1043200019F9002041F2EB1101236022CDE90010C0
:10433000990700F02AF9002040F6CC4101236022C1
:10434000CDE900109907082000F01FF94148FFF758
:104350002EFF4148FFF72BFF1CBD70B504460D46EC
:1043600024B902213D48FDF7CFFF05E0012C03D120
:1043700002213A48FDF7C6FF29464FF08040FEF77C
:10438000E4FC70BD70B504460D4624B908213348DD
:10439000FDF7BAFF05E0012C03D108212F48FDF7F6
:1043A000B1FF29464FF08040FEF7D3FC70BD1CB52D
:1043B0002B48FFF7CEFE2B48FFF7CBFE2A48FFF72E
:1043C000C8FE01212648FFF7CFFD01212548FFF750
:1043D000CBFD01212448FFF7C7FD00204FF6FF73F6
:1043E000024602210090214800F0B4F8002000901D
:1043F000012360221D49019000F0C7F800200090C1
:104400000123602219490190042000F0BEF8002029
:1044100000900123602215490190082000F0B5F8B2
:104420001CBD10B5044621461048FEF78EFC10BD99
:1044300010B5044621460D48FEF789FC10BD10B5A5
:10444000044621460948FEF784FC10BD148F00087D
:10445000248F00081C8F00082C8F000800000240E9
:10446000548F00085C8F0008648F00080000014032
:1044700010B504467148844204D101210846FFF773
:1044800079FC66E0B4F1804F04D101210846FFF7C2
:1044900060FC5EE06A48844204D101210220FFF7FB
:1044A00058FC56E06748844204D101210420FFF7FC
:1044B00050FC4EE06448844204D101210820FFF7FB
:1044C00048FC46E06148844204D101211020FFF7F6
:1044D00040FC3EE05E48844204D101212020FFF7E9
:1044E00038FC36E05B48844204D101210220FFF70A
:1044F00041FC2EE05848844204D101210804FFF712
:1045000039FC26E05548844204D101214804FFF7D4
:1045100031FC1EE05248844204D101218804FFF797
:1045200029FC16E04F48844204D101214020FFF7C6
:1045300010FC0EE04C48844204D101218020FFF79A
:1045400008FC06E04948844203D101218015FFF7A9
:1045500000FC10BD2DE9FE4307460C4615461E46DD
:10456000DDF828803846FFF783FF0196ADF8088014
:10457000ADF80040ADF8025000208DF80A00694601
:104580003846FEF7F4F9BDE8FE832DE9F04385B027
:1045900004460D4616461F46DDE90C89ADF80C9021
:1045A000ADF80060ADF80270CDF808802348854270
:1045B00002D0284885420BD10020ADF80E00ADF89E
:1045C00010004FF40070ADF812000420ADF80400A4
:1045D0003CB969462846FEF75FFA08212846FEF7EF
:1045E000E8FB042C07D169462846FEF78EFA08211D
:1045F0002846FEF7E7FB082C07D169462846FEF758
:10460000D1FA08212846FEF7EAFB0C2C07D16946AF
:104610002846FEF72DFB08212846FEF7E9FB01217D
:104620002846FEF71EFE01212846FEF70BFA01215F
:104630002846FEF725FA05B0BDE8F08300000140EA
:104640000004004000080040000C00400010004042
:1046500000140040000401400040014000440140BB
:104660000048014000180040001C004000200040AD
:1046700010B51648FFF79BFD10BD70B504460D46FA
:10468000012D03D1A1882068FDF73CFE1DB9A1884A
:104690002068FDF739FE70BD10B504460C4800785F
:1046A000012807D1A1882068FDF72CFE00200849C9
:1046B000087009E00648007830B9A1882068FDF745
:1046C00023FE01200249087010BD0000AC8F0008D5
:1046D0008810002000B587B0FE48FFF768FDFE484F
:1046E000FFF765FDFD48FFF762FD01210846FFF772
:1046F000E7FA01210803FFF73DFBA020009002200C
:104700008DF8040000208DF8060003208DF80500C8
:1047100000208DF807006946F148FDF777FD052276
:104720001146EF48FDF7FDFD05220721EC48FDF796
:10473000F8FD0020ADF808004FF48270ADF80A00D3
:104740000020ADF80C000220ADF80E000120ADF8FD
:1047500010004002ADF812000020ADF81400ADF8D2
:10476000160002A9DF48FDF761FE0121DD48FDF7D3
:1047700057FF0021DB48FDF7D6FF0021D948FDF7A0
:104780008DFF07B000BD10B504461021D648FDF7D7
:10479000BBFD2021D448FDF7B7FD00BF0221D14861
:1047A000FEF708F80028F9D02146CE48FDF7B9FFFA
:1047B00000BF0121CB48FDF7FDFF0028F9D0C94813
:1047C000FDF7ACFF1021C848FDF79CFD10BD10B5EA
:1047D00004461021C448FDF797FD2021C248FDF78B
:1047E00091FD00BF0221BF48FDF7E4FF0028F9D08A
:1047F0002146BC48FDF795FF00BF0121B948FDF7F0
:10480000D9FF0028F9D0B748FDF788FF1021B64836
:10481000FDF778FD10BD10B50120FFF7B4FF1120A2
:10482000FFF7B1FFB120FFF7AEFF0120FFF7CFFF89
:104830002C20FFF7CCFF2D20FFF7C9FFB220FFF798
:10484000A2FF0120FFF7C3FF2C20FFF7C0FF2D20A0
:10485000FFF7BDFFB320FFF796FF0120FFF7B7FF7B
:104860002C20FFF7B4FF2D20FFF7B1FF0120FFF749
:10487000AEFF2C20FFF7ABFF2D20FFF7A8FFB420E1
:10488000FFF781FF0720FFF7A2FFC020FFF77BFFA4
:10489000A220FFF79CFF0220FFF799FF8420FFF77B
:1048A00096FFC120FFF76FFFC520FFF790FFC220E2
:1048B000FFF769FF0A20FFF78AFF0020FFF787FF55
:1048C000C320FFF760FF8A20FFF781FF2A20FFF750
:1048D0007EFFC420FFF757FF8A20FFF778FFEE2006
:1048E000FFF775FFC520FFF74EFF0E20FFF76FFFA4
:1048F0003620FFF748FFC820FFF769FFE020FFF7E9
:1049000042FF0220FFF763FF1C20FFF760FF072034
:10491000FFF75DFF1220FFF75AFF3720FFF757FF21
:104920003220FFF754FF2920FFF751FF2D20FFF71A
:104930004EFF2920FFF74BFF2520FFF748FF2B20D4
:10494000FFF745FF3920FFF742FF0020FFF73FFF49
:104950000120FFF73CFF0320FFF739FF1020FFF78E
:1049600036FFE120FFF70FFF0320FFF730FF1D2088
:10497000FFF72DFF0720FFF72AFF0620FFF727FF8D
:104980002E20FFF724FF2C20FFF721FF2920FFF71F
:104990001EFF2D20FFF71BFF2E20FFF718FF2E20F4
:1049A000FFF715FF3720FFF712FF3F20FFF70FFF3C
:1049B0000020FFF70CFF0020FFF709FF0220FFF7A0
:1049C00006FF1020FFF703FF2A20FFF7DCFE002080
:1049D000FFF7FDFE0020FFF7FAFE0020FFF7F7FECD
:1049E0007F20FFF7F4FE2B20FFF7CDFE0020FFF71E
:1049F000EEFE0020FFF7EBFE0020FFF7E8FE9F2011
:104A0000FFF7E5FE3A20FFF7BEFE0520FFF7DFFEC9
:104A10002920FFF7B8FE10BD10B501213348FDF77E
:104A200073FC0120FFF74FFC01213048FDF76AFCC1
:104A30000120FFF748FC10BD70B504462A20FFF79F
:104A4000A2FE0020FFF7C3FE0020FFF7C0FE0020FB
:104A5000FFF7BDFE7F20FFF7BAFE2B20FFF793FE86
:104A60000020FFF7B4FE0020FFF7B1FE0020FFF7A3
:104A7000AEFE9F20FFF7ABFE2C20FFF784FE002543
:104A800007E02012FFF7A3FEE0B2FFF7A0FE681CCC
:104A900085B2B5F5A04FF4DB70BD154908807047AD
:104AA0001449088070471449088070472DE9F04781
:104AB00080460E4617469946FFF70CFEFFF7ACFFFF
:104AC000FFF7A9FE2C20FFF75EFE3046FFF7EBFF55
:104AD000384613E0948F0008349000083C9000089A
:104AE0000000024000300140000802400004024083
:104AF0008E2000208C2000208A200020FFF7D0FF8D
:104B00004846FFF7CAFF3046FFF796FFF84880F89F
:104B10000080002431E000252BE0202004EB44013C
:104B2000F44A02EB8101485504EB4400F24901EBE1
:104B3000C00020F8157004EB4400F04901EBC00000
:104B400020F81560202004EB4401ED4A02EB8101BE
:104B5000485504EB4400EB4901EBC00020F8157008
:104B600004EB4400E84901EBC00020F81560681C24
:104B7000C5B20C2DD1DB601CC4B2142CCBDBBDE85C
:104B8000F0870120E149087070470020DF49087074
:104B90007047DF4800887047DE4800887047DE486D
:104BA00000887047D2480078704770B5002420E034
:104BB00000251AE0202004EB4401D14A02EB8101D8
:104BC0004855D448008804EB4401CE4A02EBC101A9
:104BD00021F81500CE48008804EB4401CA4A02EBD4
:104BE000C10121F81500681CC5B20C2DE2DB601C68
:104BF000C4B2142CDCDBC6480088FFF71DFF70BD73
:104C000010B504462046E11704EB91718910A4EB1E
:104C10008101B74A1170FFF7C8FF10BDB448017891
:104C200001EBD1704010A1EB400008B11420704797
:104C30001020FCE7AE48017801EBD1704010A1EBE9
:104C4000400008B10C2070470C20FCE770B5054609
:104C50000C462A20FFF797FD0020FFF7B8FD2846F5
:104C6000FFF7B5FD0020FFF7B2FD691CC8B2FFF7E2
:104C7000AEFD2B20FFF787FD0020FFF7A8FD2046A3
:104C8000FFF7A5FD0020FFF7A2FD611CC8B2FFF7EA
:104C90009EFD2C20FFF777FD70BD2DE9F041074602
:104CA0000C4615461E462A20FFF76DFD0020FFF733
:104CB0008EFD3846FFF78BFD0020FFF788FD284664
:104CC000FFF785FD2B20FFF75EFD0020FFF77FFD3E
:104CD0002046FFF77CFD0020FFF779FD3046FFF707
:104CE00076FD2C20FFF74FFDBDE8F08110B50146A1
:104CF00000201AE0202200EB40037E4C04EB8303EB
:104D00005A54844A128800EB40037B4C04EBC303E3
:104D100023F811207E4A128800EB4003774C04EB05
:104D2000C30323F81120421CD0B21428E2DB10BDCB
:104D300010B5002404E02046FFF7D8FF601CC4B281
:104D40000C2CF8DB10BD10B5FFF72FFFFFF7F0FFBD
:104D500067490978481CC11700EB91718910A0EBD5
:104D60008101634A117010BD70B504460D461646A8
:104D70005F48007830B1012809D002280ED00328FE
:104D80001CD114E029462046FFF760FF16E0C5F16C
:104D90007F01C8B22146FFF759FF0FE0C5F19F021E
:104DA000D1B2C4F17F02D0B2FFF750FF06E0C4F1E8
:104DB0009F00C1B22846FFF749FF00BF00BF301275
:104DC000FFF705FDF0B2FFF702FD70BD30B50246FA
:104DD00002EB42034A4C04EB83035B5C02EB4204AC
:104DE000444D05EB8404645CA3421FD102EB4203F3
:104DF000444C04EBC30333F8113002EB42043E4D44
:104E000005EBC40434F81140A3420FD102EB420376
:104E10003D4C04EBC30333F8113002EB4204374D31
:104E200005EBC40434F81140A34201D0012300E093
:104E30000023184602EB42032E4C04EB83035B5C19
:104E400002EB42042E4D05EB8404635402EB420353
:104E5000294C04EBC30333F8113002EB4204294D13
:104E600005EBC40424F8113002EB4203234C04EB9D
:104E7000C30333F8113002EB4204234D05EBC404A5
:104E800024F8113030BD0FB4F0B5C1B005460E4660
:104E90000027002449A8009001A8009A489901F031
:104EA00069FE0020009001AC6CE020785B2806D100
:104EB00014F8010C5C2802D00127641C61E0207802
:104EC0005D2806D114F8010C5C2802D00027641C70
:104ED00057E020780D2802D020780A2801D1641CE0
:104EE0004FE0142D01DC0C2E18DD641C4AE000009C
:104EF00090200020385D0020185F0020D86200203C
:104F0000285E0020F8600020B86400209120002076
:104F10008A2000208C2000208E20002020785C2811
:104F200006D160785B2802D060785D2800D1641CCF
:104F300014F8010B05EB4501FE4A02EB810188558F
:104F400017B1FD48008801E0FC48008805EB4501E9
:104F5000FB4A02EBC10121F81600FA48008805EB74
:104F60004501F94A02EBC10121F81600142D03DBBB
:104F70000025701CC6B201E0681CC5B20C2E00DB17
:104F8000002600BF207800288FD141B0F0BC5DF82A
:104F900014FB2DE9F05F0026EC48007808B9BDE865
:104FA000F09F002468E0002562E005EB4500E4493D
:104FB00001EBC00030F8140000F4004008B14020BC
:104FC00000E0002005EB4501DD4A02EBC10131F8AC
:104FD000141001F4806109B1202100E00021084390
:104FE00005EB4501D64A02EBC10111F8141001F09E
:104FF000100109B1102100E00021084305EB450133
:10500000D34A02EB8101085505EB4500CE4901EB7F
:10501000C00030F8140000F4004008B1042000E0A3
:10502000002005EB4501CA4A02EB8101095D0843F6
:1050300005EB4501C44A02EBC10131F8141001F43B
:10504000806109B1022100E00021084305EB450120
:10505000BD4A02EBC10111F81410C1F3001108435D
:1050600005EB4501BA4A02EB81010855681C05B2FF
:10507000102D9ADB601C04B20A2C94DBB548007832
:1050800030B101287ED002287DD003287CD1C5E133
:10509000002488E0002581E0E1B2E8B2FFF796FE47
:1050A000002879D0012605E0A819102800DB0BE0C4
:1050B000701C06B2A819102806DAE1B2AA19D0B2FB
:1050C000FFF784FE0028EFD100BF04F1010C4FF080
:1050D000010ECEEB0C1C0CF0FF0305EB060CCEEB27
:1050E000CC0C0CF0FF024FEA047C4FEA1C614FEA43
:1050F000C56C4FEA1C60FFF7D0FDA2464FF00008D8
:105100003FE0002736E03846F91707EB517105EB11
:10511000E1010FFA81F9F91707EB5171C910A7EBFB
:10512000C1028021114109EB4902824B03EB82024B
:1051300012F80A2008EB0212874B9A5C114039B131
:1051400009EB49017E4A02EBC10131F81A1006E071
:1051500009EB49017C4A02EBC10131F81A108B4678
:105160004FEA2B20FFF733FB0BF0FF00FFF72FFB7D
:10517000781C07B2B7EBC60FC5DB08F101000FFAC8
:1051800080F803E013E0A1E0D7E105E0B8F1100FEB
:10519000B7DB701E284405B2681C05B2102DFFF65F
:1051A0007BAF601C04B20C2CFFF674AFC5E1002588
:1051B00088E00B2481E0E1B2E8B2FFF707FE0028A7
:1051C00079D0012604E0A01B00D50AE0701C06B2CD
:1051D000A01B06D4A21BD1B2E8B2FFF7F7FD00284E
:1051E000F1D100BF05F1010C4FF0010ECEEBCC0C5C
:1051F0000CF0FF03C4F10B0CB444CEEB0C1C0CF010
:10520000FF024FEAC56C4FEA1C61C4F10B0C4FEA78
:105210000C7C4FEA1C60FFF740FDA946002745E0E3
:105220004FF000083DE040464FEAE87108EB11718D
:10523000A4EB21110FFA81FA4FEAE87108EB117122
:105240000911A8EB011209EB49013A4B03EB81016B
:1052500011F80A10102303EB0111891A491E3E4A66
:10526000515C80223A41114039B109EB4901344A7D
:1052700002EBC10131F81A1006E009EB4901324A8C
:1052800002EBC10131F81A108B464FEA2B20FFF7D1
:105290009EFA0BF0FF00FFF79AFA08F101000FFAEF
:1052A00080F8B8EB061FBEDB781C07B2082FB7DB0F
:1052B000701E201A04B2601E04B2002CBFF67BAF31
:1052C000681C05B2142DFFF674AF36E10B24A1E083
:1052D0000F259AE0E1B2E8B2FFF778FD002872D01E
:1052E000012604E0A81B00D50AE0701C06B2A81B2A
:1052F00006D4E1B2AA1BD0B2FFF768FD0028F1D1B5
:1053000000BFC4F10C0C4FF0010ECEEB0C1C0CF0E6
:10531000FF03C5F10F0CB444CEEBCC0C0CF0FF0234
:10532000C4F10B0C4FEA0C7C4FEA1C61C5F10F0C69
:1053300014E00000385D00208E2000208C2000202A
:10534000185F00208A200020D862002091200020D1
:1053500098660020902000208A1000204FEACC6C34
:105360004FEA1C60FFF799FCA2464FF0000844E0AA
:1053700000273BE03846F91707EB5171A5EBE10137
:105380000FFA81F9C8F10F0109EB49026C4B03EBED
:10539000820212F80A2001EB02116A4A515CFA17E4
:1053A00007EB5272D210A7EBC202C2F107028023B0
:1053B0001341194041B109EB4901634A02EBC101B4
:1053C00031F81A1007E01EE009EB49015F4A02EBD1
:1053D000C10131F81A108B464FEA2B20FFF7F7F97D
:1053E0000BF0FF00FFF7F3F9781C07B2B7EBC60F1D
:1053F000C0DB08F101000FFA80F8B8F1100FB7DB3D
:10540000701E281A05B2681E05B2002DBFF662AFE5
:10541000601E04B2002CBFF65BAF8EE0132588E05F
:10542000002481E0E1B2E8B2FFF7D0FC78B30126B6
:1054300005E0A0190C2800DB0BE0701C06B2A019D7
:105440000C2806DAA219D1B2E8B2FFF7BFFC002897
:10545000EFD100BFC5F1140C4FF0010ECEEBCC0C18
:105460000CF0FF0304EB060CCEEB0C1C0CF0FF025F
:10547000C5F1130C4FEACC6C4FEA1C614FEA047C77
:105480004FEA1C60FFF709FCA946002745E049E008
:105490004FF000083CE040464FEAE87108EB11711C
:1054A00004EB21110FFA81FA4FEAE87108EB117150
:1054B0000911A8EB011209EB4901214B03EB810112
:1054C00011F80A1002EB01111E4A515CC7F10702E4
:1054D00080231341194039B109EB49011A4A02EB03
:1054E000C10131F81A1006E009EB4901174A02EB35
:1054F000C10131F81A108B464FEA2B20FFF767F9EC
:105500000BF0FF00FFF763F908F101000FFA80F8D4
:10551000B8EB061FBFDB781C07B2082FB8DB701E84
:10552000204404B2601C04B20C2CFFF67BAF681E52
:1055300005B2002DBFF674AF00BF00BF00BF2EE55F
:10554000385D00208A100020185F0020D8620020FB
:1055500000B587B001210846FEF7B2FB4FF40040CA
:10556000009001208DF804008DF8060003208DF8CE
:10557000050000208DF807006946FE48FCF746FE4E
:1055800000224FF40041FB48FCF7CBFE4FF40041F2
:10559000F848FCF7B7FE01210820FEF791FB042034
:1055A000009001208DF804008DF8060003208DF88E
:1055B000050000208DF807006946EF48FCF726FE3D
:1055C0000421ED48FCF79EFE01210420FEF778FB44
:1055D0000121C803FEF7BDFB4FF4E050009002200C
:1055E0008DF8040000208DF8060002208DF80500DB
:1055F00001208DF807006946E048FCF707FE062207
:105600000A21DE48FCF78DFE06220C21DB48FCF760
:1056100088FE06220B21D948FCF783FE0020ADF856
:1056200008004FF48270ADF80A004FF40060ADF846
:105630000C000220ADF80E000120ADF81000400271
:10564000ADF812002020ADF814000020ADF81600CF
:10565000CB48FCF79FFE0021C948FCF7E1FF02A9F7
:10566000C748FCF7E3FE0121C548FCF7D9FF00213C
:10567000C348FDF758F80021C148FDF70FF807B0FF
:1056800000BD10B50421BC48FCF73CFE10BD10B5B0
:105690000421B948FCF738FE10BD70B50446FFF789
:1056A000F6FF00BF0221B648FDF784F80028F9D0C4
:1056B0002146B348FDF735F800BF0121B048FDF79A
:1056C00079F80028F9D0AE48FDF728F80546FFF72D
:1056D000D8FF002000E0401CB0F5C87FFBDB284667
:1056E00070BD2DE9F04105460C4605F03F0040F045
:1056F0008006300240EA24273846FFF7CEFF701EAE
:10570000214660F31F211FFA81F84046FFF7C5FFCD
:10571000BDE8F08170B5044604F03F054FF6FF7018
:1057200000EA05252846FFF7B8FF2846FFF7B5FF32
:105730000546284670BD10B5FFF70AFF80213F20BF
:10574000FFF7CFFF3220FEF7BEFD02213F20FFF71B
:10575000C8FF40F204413920FFF7C3FF0121372081
:10576000FFF7BFFF08213F20FFF7BBFF6420FEF7D4
:10577000AAFD01208349087010BD70B500240025E2
:105780000520FFF7C7FF044604F4005010B144F4AD
:10579000404401E0C4F30D0445EA040005B2284684
:1057A00070BD2DE9F04100240027A0460025002609
:1057B0007448007808B9BDE8F08100250BE0B5F524
:1057C000007F03DBFFF7D9FF804644440420FEF747
:1057D0007AFD681C05B2B5F5806FF0DB2046E11755
:1057E00004EB5161CC11644227B246EA070086B24D
:1057F00030B26549088031461520FFF772FF082155
:105800003F20FFF76EFF6420FEF75DFD02205D493B
:10581000087000BFCFE70146002901DA484270470F
:105820000846FCE770B5002400251520FFF772FF3D
:10583000044604F4006010B144F4704401E0C4F381
:105840000B0445EA040005B2284670BD2DE9F04777
:105850000024002500260027A046A14649480078DC
:1058600008B9BDE8F08700270EE0FFF786FF06467F
:105870003046FFF7D0FF0C2800DDF2E73444042067
:10588000FEF721FD781C07B2FF2FEEDD2046E11761
:1058900004EB91618C11644225B22846FFF7BBFFEF
:1058A000012814DDFFF7BEFF814605EB090005B2B4
:1058B00048EA05001FFA80F841461520FFF711FF5E
:1058C00008213F20FFF70DFF6420FEF7FCFC0220BB
:1058D0002C49087000BFC4E710B500240F20FFF763
:1058E00019FFC0F30D04204610BD10B52DED048B3B
:1058F000FFF743FF254908800846B0F900000A2851
:105900000DDA0846B0F9000010F10A0F07DD00209B
:1059100008801F48007810B100201D4908701B48FE
:10592000008800287ED01A48007878B919480068A5
:10593000194908601548B0F90000184908600020AE
:105940001749086003201249087041E00F48B0F978
:1059500000000F490978134A128811FB0200032145
:1059600090FBF1F00D49096808440C4908600848AB
:10597000007819E000000240000C024000080240DC
:10598000003C0040A2300020A030002094300020D5
:10599000AC300020B4300020B0300020A430002013
:1059A000A830002096300020C0F10400B9490870EA
:1059B000B948B0F900000978B84A128811FB020012
:1059C000032190FBF1F0B64909680844B449086026
:1059D000B0480078032802D1B248006801E0B0481E
:1059E0000068B14909680844B04908600846006881
:1059F00003F011F841EC190B9FEDAD0B53EC102B9C
:105A000002F082FE41EC180B02F0D6FFAA490860B2
:105A1000084600684FF4616190FBF1F201FB12004F
:105A2000A54900E032E0086008460068002804DA72
:105A30000846006800F5616008609F48006820B172
:105A40009D480068C0F5616000E000209A49086048
:105A500000B29A4908800846B0F900009849B1F9A7
:105A6000001008444FF4616190FBF1F201FB120059
:105A700000B2924908800846B0F90000002805DA13
:105A80000846008800F5616000B208808248B0F9DD
:105A9000000082490880BDEC048B10BD8748B0F936
:105AA0000000704710B50120FFF734FE0120FFF71A
:105AB00031FE10BD10B50320FFF72CFE0320FFF7C9
:105AC00029FEC0F30B004FF4E56110FB01F080B23A
:105AD00010BD10B50B20FFF71DFE0B20FFF71AFEBF
